{
  "_format": "hh-sol-artifact-1",
  "contractName": "NFTMint",
  "sourceName": "contracts/NFTmint.sol",
  "abi": [
    {
      "inputs": [
        {
          "internalType": "string",
          "name": "name",
          "type": "string"
        },
        {
          "internalType": "string",
          "name": "symbol",
          "type": "string"
        }
      ],
      "stateMutability": "nonpayable",
      "type": "constructor"
    },
    {
      "anonymous": false,
      "inputs": [
        {
          "indexed": true,
          "internalType": "address",
          "name": "owner",
          "type": "address"
        },
        {
          "indexed": true,
          "internalType": "address",
          "name": "approved",
          "type": "address"
        },
        {
          "indexed": true,
          "internalType": "uint256",
          "name": "tokenId",
          "type": "uint256"
        }
      ],
      "name": "Approval",
      "type": "event"
    },
    {
      "anonymous": false,
      "inputs": [
        {
          "indexed": true,
          "internalType": "address",
          "name": "owner",
          "type": "address"
        },
        {
          "indexed": true,
          "internalType": "address",
          "name": "operator",
          "type": "address"
        },
        {
          "indexed": false,
          "internalType": "bool",
          "name": "approved",
          "type": "bool"
        }
      ],
      "name": "ApprovalForAll",
      "type": "event"
    },
    {
      "anonymous": false,
      "inputs": [
        {
          "indexed": true,
          "internalType": "address",
          "name": "from",
          "type": "address"
        },
        {
          "indexed": true,
          "internalType": "address",
          "name": "to",
          "type": "address"
        },
        {
          "indexed": true,
          "internalType": "uint256",
          "name": "tokenId",
          "type": "uint256"
        }
      ],
      "name": "Transfer",
      "type": "event"
    },
    {
      "inputs": [
        {
          "internalType": "address",
          "name": "to",
          "type": "address"
        },
        {
          "internalType": "uint256",
          "name": "tokenId",
          "type": "uint256"
        }
      ],
      "name": "approve",
      "outputs": [],
      "stateMutability": "nonpayable",
      "type": "function"
    },
    {
      "inputs": [
        {
          "internalType": "uint256",
          "name": "_tokenId",
          "type": "uint256"
        },
        {
          "internalType": "address",
          "name": "_marketplaceAddress",
          "type": "address"
        }
      ],
      "name": "approveNFT",
      "outputs": [],
      "stateMutability": "nonpayable",
      "type": "function"
    },
    {
      "inputs": [
        {
          "internalType": "address",
          "name": "owner",
          "type": "address"
        }
      ],
      "name": "balanceOf",
      "outputs": [
        {
          "internalType": "uint256",
          "name": "",
          "type": "uint256"
        }
      ],
      "stateMutability": "view",
      "type": "function"
    },
    {
      "inputs": [],
      "name": "fetchTokenCount",
      "outputs": [
        {
          "internalType": "uint256",
          "name": "",
          "type": "uint256"
        }
      ],
      "stateMutability": "view",
      "type": "function"
    },
    {
      "inputs": [
        {
          "internalType": "uint256",
          "name": "tokenId",
          "type": "uint256"
        }
      ],
      "name": "getApproved",
      "outputs": [
        {
          "internalType": "address",
          "name": "",
          "type": "address"
        }
      ],
      "stateMutability": "view",
      "type": "function"
    },
    {
      "inputs": [
        {
          "internalType": "address",
          "name": "owner",
          "type": "address"
        },
        {
          "internalType": "address",
          "name": "operator",
          "type": "address"
        }
      ],
      "name": "isApprovedForAll",
      "outputs": [
        {
          "internalType": "bool",
          "name": "",
          "type": "bool"
        }
      ],
      "stateMutability": "view",
      "type": "function"
    },
    {
      "inputs": [
        {
          "internalType": "string",
          "name": "_tokenURI",
          "type": "string"
        },
        {
          "internalType": "uint256",
          "name": "_price",
          "type": "uint256"
        },
        {
          "internalType": "uint256",
          "name": "_royaltyToYou",
          "type": "uint256"
        },
        {
          "internalType": "uint256",
          "name": "_royaltyToCause",
          "type": "uint256"
        },
        {
          "internalType": "address",
          "name": "_userWallet",
          "type": "address"
        }
      ],
      "name": "mintNFT",
      "outputs": [],
      "stateMutability": "nonpayable",
      "type": "function"
    },
    {
      "inputs": [],
      "name": "name",
      "outputs": [
        {
          "internalType": "string",
          "name": "",
          "type": "string"
        }
      ],
      "stateMutability": "view",
      "type": "function"
    },
    {
      "inputs": [
        {
          "internalType": "uint256",
          "name": "tokenId",
          "type": "uint256"
        }
      ],
      "name": "ownerOf",
      "outputs": [
        {
          "internalType": "address",
          "name": "",
          "type": "address"
        }
      ],
      "stateMutability": "view",
      "type": "function"
    },
    {
      "inputs": [
        {
          "internalType": "address",
          "name": "from",
          "type": "address"
        },
        {
          "internalType": "address",
          "name": "to",
          "type": "address"
        },
        {
          "internalType": "uint256",
          "name": "tokenId",
          "type": "uint256"
        }
      ],
      "name": "safeTransferFrom",
      "outputs": [],
      "stateMutability": "nonpayable",
      "type": "function"
    },
    {
      "inputs": [
        {
          "internalType": "address",
          "name": "from",
          "type": "address"
        },
        {
          "internalType": "address",
          "name": "to",
          "type": "address"
        },
        {
          "internalType": "uint256",
          "name": "tokenId",
          "type": "uint256"
        },
        {
          "internalType": "bytes",
          "name": "_data",
          "type": "bytes"
        }
      ],
      "name": "safeTransferFrom",
      "outputs": [],
      "stateMutability": "nonpayable",
      "type": "function"
    },
    {
      "inputs": [
        {
          "internalType": "address",
          "name": "operator",
          "type": "address"
        },
        {
          "internalType": "bool",
          "name": "approved",
          "type": "bool"
        }
      ],
      "name": "setApprovalForAll",
      "outputs": [],
      "stateMutability": "nonpayable",
      "type": "function"
    },
    {
      "inputs": [
        {
          "internalType": "bytes4",
          "name": "interfaceId",
          "type": "bytes4"
        }
      ],
      "name": "supportsInterface",
      "outputs": [
        {
          "internalType": "bool",
          "name": "",
          "type": "bool"
        }
      ],
      "stateMutability": "view",
      "type": "function"
    },
    {
      "inputs": [],
      "name": "symbol",
      "outputs": [
        {
          "internalType": "string",
          "name": "",
          "type": "string"
        }
      ],
      "stateMutability": "view",
      "type": "function"
    },
    {
      "inputs": [
        {
          "internalType": "uint256",
          "name": "",
          "type": "uint256"
        }
      ],
      "name": "tokenData",
      "outputs": [
        {
          "internalType": "uint256",
          "name": "price",
          "type": "uint256"
        },
        {
          "internalType": "uint256",
          "name": "royaltyToYou",
          "type": "uint256"
        },
        {
          "internalType": "uint256",
          "name": "royaltyToCause",
          "type": "uint256"
        },
        {
          "internalType": "address",
          "name": "userWallet",
          "type": "address"
        }
      ],
      "stateMutability": "view",
      "type": "function"
    },
    {
      "inputs": [
        {
          "internalType": "uint256",
          "name": "tokenId",
          "type": "uint256"
        }
      ],
      "name": "tokenURI",
      "outputs": [
        {
          "internalType": "string",
          "name": "",
          "type": "string"
        }
      ],
      "stateMutability": "view",
      "type": "function"
    },
    {
      "inputs": [
        {
          "internalType": "address",
          "name": "from",
          "type": "address"
        },
        {
          "internalType": "address",
          "name": "to",
          "type": "address"
        },
        {
          "internalType": "uint256",
          "name": "tokenId",
          "type": "uint256"
        }
      ],
      "name": "transferFrom",
      "outputs": [],
      "stateMutability": "nonpayable",
      "type": "function"
    }
  ],
  "bytecode": "0x60a06040523480156200001157600080fd5b5060405162001d0f38038062001d0f8339810160408190526200003491620001e6565b8151829082906200004d90600090602085019062000073565b5080516200006390600190602084019062000073565b505033608052506200028d915050565b828054620000819062000250565b90600052602060002090601f016020900481019282620000a55760008555620000f0565b82601f10620000c057805160ff1916838001178555620000f0565b82800160010185558215620000f0579182015b82811115620000f0578251825591602001919060010190620000d3565b50620000fe92915062000102565b5090565b5b80821115620000fe576000815560010162000103565b634e487b7160e01b600052604160045260246000fd5b600082601f8301126200014157600080fd5b81516001600160401b03808211156200015e576200015e62000119565b604051601f8301601f19908116603f0116810190828211818310171562000189576200018962000119565b81604052838152602092508683858801011115620001a657600080fd5b600091505b83821015620001ca5785820183015181830184015290820190620001ab565b83821115620001dc5760008385830101525b9695505050505050565b60008060408385031215620001fa57600080fd5b82516001600160401b03808211156200021257600080fd5b62000220868387016200012f565b935060208501519150808211156200023757600080fd5b5062000246858286016200012f565b9150509250929050565b600181811c908216806200026557607f821691505b602082108114156200028757634e487b7160e01b600052602260045260246000fd5b50919050565b608051611a69620002a660003960005050611a696000f3fe608060405234801561001057600080fd5b506004361061011b5760003560e01c806370a08231116100b2578063aab5f20611610081578063b88d4fde11610066578063b88d4fde146102a7578063c87b56dd146102ba578063e985e9c5146102cd57600080fd5b8063aab5f2061461022d578063b4b5b48f1461024057600080fd5b806370a08231146101ec578063795a41de146101ff57806395d89b4114610212578063a22cb4651461021a57600080fd5b806323b872dd116100ee57806323b872dd1461019d57806342842e0e146101b05780636352211e146101c35780636f81239c146101d657600080fd5b806301ffc9a71461012057806306fdde0314610148578063081812fc1461015d578063095ea7b314610188575b600080fd5b61013361012e36600461158e565b610309565b60405190151581526020015b60405180910390f35b61015061035b565b60405161013f9190611603565b61017061016b366004611616565b6103ed565b6040516001600160a01b03909116815260200161013f565b61019b61019636600461164b565b610487565b005b61019b6101ab366004611675565b61059d565b61019b6101be366004611675565b610624565b6101706101d1366004611616565b61063f565b6101de6106ca565b60405190815260200161013f565b6101de6101fa3660046116b1565b6106da565b61019b61020d3660046116cc565b610774565b6101506107ef565b61019b6102283660046116f8565b6107fe565b61019b61023b3660046117c0565b61080d565b61027e61024e366004611616565b6007602052600090815260409020805460018201546002830154600390930154919290916001600160a01b031684565b604080519485526020850193909352918301526001600160a01b0316606082015260800161013f565b61019b6102b536600461183f565b610881565b6101506102c8366004611616565b61090f565b6101336102db3660046118bb565b6001600160a01b03918216600090815260056020908152604080832093909416825291909152205460ff1690565b60006001600160e01b031982166380ac58cd60e01b148061033a57506001600160e01b03198216635b5e139f60e01b145b8061035557506301ffc9a760e01b6001600160e01b03198316145b92915050565b60606000805461036a906118e5565b80601f0160208091040260200160405190810160405280929190818152602001828054610396906118e5565b80156103e35780601f106103b8576101008083540402835291602001916103e3565b820191906000526020600020905b8154815290600101906020018083116103c657829003601f168201915b5050505050905090565b6000818152600260205260408120546001600160a01b031661046b5760405162461bcd60e51b815260206004820152602c60248201527f4552433732313a20617070726f76656420717565727920666f72206e6f6e657860448201526b34b9ba32b73a103a37b5b2b760a11b60648201526084015b60405180910390fd5b506000908152600460205260409020546001600160a01b031690565b60006104928261063f565b9050806001600160a01b0316836001600160a01b031614156105005760405162461bcd60e51b815260206004820152602160248201527f4552433732313a20617070726f76616c20746f2063757272656e74206f776e656044820152603960f91b6064820152608401610462565b336001600160a01b038216148061051c575061051c81336102db565b61058e5760405162461bcd60e51b815260206004820152603860248201527f4552433732313a20617070726f76652063616c6c6572206973206e6f74206f7760448201527f6e6572206e6f7220617070726f76656420666f7220616c6c00000000000000006064820152608401610462565b6105988383610aa2565b505050565b6105a73382610b10565b6106195760405162461bcd60e51b815260206004820152603160248201527f4552433732313a207472616e736665722063616c6c6572206973206e6f74206f60448201527f776e6572206e6f7220617070726f7665640000000000000000000000000000006064820152608401610462565b610598838383610c03565b61059883838360405180602001604052806000815250610881565b6000818152600260205260408120546001600160a01b0316806103555760405162461bcd60e51b815260206004820152602960248201527f4552433732313a206f776e657220717565727920666f72206e6f6e657869737460448201527f656e7420746f6b656e00000000000000000000000000000000000000000000006064820152608401610462565b60006106d560085490565b905090565b60006001600160a01b0382166107585760405162461bcd60e51b815260206004820152602a60248201527f4552433732313a2062616c616e636520717565727920666f7220746865207a6560448201527f726f2061646472657373000000000000000000000000000000000000000000006064820152608401610462565b506001600160a01b031660009081526003602052604090205490565b600061077f8361063f565b90506001600160a01b03811633146107e55760405162461bcd60e51b8152602060048201526024808201527f5468652063616c6c6572206973206e6f74206f776e6572206f6620746869732060448201526327232a1760e11b6064820152608401610462565b6105988284610487565b60606001805461036a906118e5565b610809338383610db7565b5050565b600061081860085490565b90506108243382610e86565b61082e8187610ea0565b6000818152600760205260409020858155600181018590556002810184905560030180546001600160a01b0384166001600160a01b0319909116179055610879600880546001019055565b505050505050565b61088b3383610b10565b6108fd5760405162461bcd60e51b815260206004820152603160248201527f4552433732313a207472616e736665722063616c6c6572206973206e6f74206f60448201527f776e6572206e6f7220617070726f7665640000000000000000000000000000006064820152608401610462565b61090984848484610f49565b50505050565b6000818152600260205260409020546060906001600160a01b031661099c5760405162461bcd60e51b815260206004820152603160248201527f45524337323155524953746f726167653a2055524920717565727920666f722060448201527f6e6f6e6578697374656e7420746f6b656e0000000000000000000000000000006064820152608401610462565b600082815260066020526040812080546109b5906118e5565b80601f01602080910402602001604051908101604052809291908181526020018280546109e1906118e5565b8015610a2e5780601f10610a0357610100808354040283529160200191610a2e565b820191906000526020600020905b815481529060010190602001808311610a1157829003601f168201915b505050505090506000610a4c60408051602081019091526000815290565b9050805160001415610a5f575092915050565b815115610a91578082604051602001610a79929190611920565b60405160208183030381529060405292505050919050565b610a9a84610fc7565b949350505050565b600081815260046020526040902080546001600160a01b0319166001600160a01b0384169081179091558190610ad78261063f565b6001600160a01b03167f8c5be1e5ebec7d5bd14f71427d1e84f3dd0314c0f7b2291e5b200ac8c7c3b92560405160405180910390a45050565b6000818152600260205260408120546001600160a01b0316610b895760405162461bcd60e51b815260206004820152602c60248201527f4552433732313a206f70657261746f7220717565727920666f72206e6f6e657860448201526b34b9ba32b73a103a37b5b2b760a11b6064820152608401610462565b6000610b948361063f565b9050806001600160a01b0316846001600160a01b03161480610bcf5750836001600160a01b0316610bc4846103ed565b6001600160a01b0316145b80610a9a57506001600160a01b0380821660009081526005602090815260408083209388168352929052205460ff16610a9a565b826001600160a01b0316610c168261063f565b6001600160a01b031614610c925760405162461bcd60e51b815260206004820152602560248201527f4552433732313a207472616e736665722066726f6d20696e636f72726563742060448201527f6f776e65720000000000000000000000000000000000000000000000000000006064820152608401610462565b6001600160a01b038216610cf45760405162461bcd60e51b8152602060048201526024808201527f4552433732313a207472616e7366657220746f20746865207a65726f206164646044820152637265737360e01b6064820152608401610462565b610cff600082610aa2565b6001600160a01b0383166000908152600360205260408120805460019290610d28908490611965565b90915550506001600160a01b0382166000908152600360205260408120805460019290610d5690849061197c565b909155505060008181526002602052604080822080546001600160a01b0319166001600160a01b0386811691821790925591518493918716917fddf252ad1be2c89b69c2b068fc378daa952ba7f163c4a11628f55a4df523b3ef91a4505050565b816001600160a01b0316836001600160a01b03161415610e195760405162461bcd60e51b815260206004820152601960248201527f4552433732313a20617070726f766520746f2063616c6c6572000000000000006044820152606401610462565b6001600160a01b03838116600081815260056020908152604080832094871680845294825291829020805460ff191686151590811790915591519182527f17307eab39ab6107e8899845ad3d59bd9653f200f220920489ca2b5937696c31910160405180910390a3505050565b6108098282604051806020016040528060008152506110bd565b6000828152600260205260409020546001600160a01b0316610f2a5760405162461bcd60e51b815260206004820152602e60248201527f45524337323155524953746f726167653a2055524920736574206f66206e6f6e60448201527f6578697374656e7420746f6b656e0000000000000000000000000000000000006064820152608401610462565b60008281526006602090815260409091208251610598928401906114dc565b610f54848484610c03565b610f608484848461113b565b6109095760405162461bcd60e51b815260206004820152603260248201527f4552433732313a207472616e7366657220746f206e6f6e20455243373231526560448201527131b2b4bb32b91034b6b83632b6b2b73a32b960711b6064820152608401610462565b6000818152600260205260409020546060906001600160a01b03166110545760405162461bcd60e51b815260206004820152602f60248201527f4552433732314d657461646174613a2055524920717565727920666f72206e6f60448201527f6e6578697374656e7420746f6b656e00000000000000000000000000000000006064820152608401610462565b600061106b60408051602081019091526000815290565b9050600081511161108b57604051806020016040528060008152506110b6565b8061109584611284565b6040516020016110a6929190611920565b6040516020818303038152906040525b9392505050565b6110c7838361139a565b6110d4600084848461113b565b6105985760405162461bcd60e51b815260206004820152603260248201527f4552433732313a207472616e7366657220746f206e6f6e20455243373231526560448201527131b2b4bb32b91034b6b83632b6b2b73a32b960711b6064820152608401610462565b60006001600160a01b0384163b1561127957604051630a85bd0160e11b81526001600160a01b0385169063150b7a029061117f903390899088908890600401611994565b6020604051808303816000875af19250505080156111ba575060408051601f3d908101601f191682019092526111b7918101906119d0565b60015b61125f573d8080156111e8576040519150601f19603f3d011682016040523d82523d6000602084013e6111ed565b606091505b5080516112575760405162461bcd60e51b815260206004820152603260248201527f4552433732313a207472616e7366657220746f206e6f6e20455243373231526560448201527131b2b4bb32b91034b6b83632b6b2b73a32b960711b6064820152608401610462565b805181602001fd5b6001600160e01b031916630a85bd0160e11b149050610a9a565b506001949350505050565b6060816112a85750506040805180820190915260018152600360fc1b602082015290565b8160005b81156112d257806112bc816119ed565b91506112cb9050600a83611a1e565b91506112ac565b60008167ffffffffffffffff8111156112ed576112ed611734565b6040519080825280601f01601f191660200182016040528015611317576020820181803683370190505b5090505b8415610a9a5761132c600183611965565b9150611339600a86611a32565b61134490603061197c565b60f81b81838151811061135957611359611a46565b60200101907effffffffffffffffffffffffffffffffffffffffffffffffffffffffffffff1916908160001a905350611393600a86611a1e565b945061131b565b6001600160a01b0382166113f05760405162461bcd60e51b815260206004820181905260248201527f4552433732313a206d696e7420746f20746865207a65726f20616464726573736044820152606401610462565b6000818152600260205260409020546001600160a01b0316156114555760405162461bcd60e51b815260206004820152601c60248201527f4552433732313a20746f6b656e20616c7265616479206d696e746564000000006044820152606401610462565b6001600160a01b038216600090815260036020526040812080546001929061147e90849061197c565b909155505060008181526002602052604080822080546001600160a01b0319166001600160a01b03861690811790915590518392907fddf252ad1be2c89b69c2b068fc378daa952ba7f163c4a11628f55a4df523b3ef908290a45050565b8280546114e8906118e5565b90600052602060002090601f01602090048101928261150a5760008555611550565b82601f1061152357805160ff1916838001178555611550565b82800160010185558215611550579182015b82811115611550578251825591602001919060010190611535565b5061155c929150611560565b5090565b5b8082111561155c5760008155600101611561565b6001600160e01b03198116811461158b57600080fd5b50565b6000602082840312156115a057600080fd5b81356110b681611575565b60005b838110156115c65781810151838201526020016115ae565b838111156109095750506000910152565b600081518084526115ef8160208601602086016115ab565b601f01601f19169290920160200192915050565b6020815260006110b660208301846115d7565b60006020828403121561162857600080fd5b5035919050565b80356001600160a01b038116811461164657600080fd5b919050565b6000806040838503121561165e57600080fd5b6116678361162f565b946020939093013593505050565b60008060006060848603121561168a57600080fd5b6116938461162f565b92506116a16020850161162f565b9150604084013590509250925092565b6000602082840312156116c357600080fd5b6110b68261162f565b600080604083850312156116df57600080fd5b823591506116ef6020840161162f565b90509250929050565b6000806040838503121561170b57600080fd5b6117148361162f565b91506020830135801515811461172957600080fd5b809150509250929050565b634e487b7160e01b600052604160045260246000fd5b600067ffffffffffffffff8084111561176557611765611734565b604051601f8501601f19908116603f0116810190828211818310171561178d5761178d611734565b816040528093508581528686860111156117a657600080fd5b858560208301376000602087830101525050509392505050565b600080600080600060a086880312156117d857600080fd5b853567ffffffffffffffff8111156117ef57600080fd5b8601601f8101881361180057600080fd5b61180f8882356020840161174a565b9550506020860135935060408601359250606086013591506118336080870161162f565b90509295509295909350565b6000806000806080858703121561185557600080fd5b61185e8561162f565b935061186c6020860161162f565b925060408501359150606085013567ffffffffffffffff81111561188f57600080fd5b8501601f810187136118a057600080fd5b6118af8782356020840161174a565b91505092959194509250565b600080604083850312156118ce57600080fd5b6118d78361162f565b91506116ef6020840161162f565b600181811c908216806118f957607f821691505b6020821081141561191a57634e487b7160e01b600052602260045260246000fd5b50919050565b600083516119328184602088016115ab565b8351908301906119468183602088016115ab565b01949350505050565b634e487b7160e01b600052601160045260246000fd5b6000828210156119775761197761194f565b500390565b6000821982111561198f5761198f61194f565b500190565b60006001600160a01b038087168352808616602084015250836040830152608060608301526119c660808301846115d7565b9695505050505050565b6000602082840312156119e257600080fd5b81516110b681611575565b6000600019821415611a0157611a0161194f565b5060010190565b634e487b7160e01b600052601260045260246000fd5b600082611a2d57611a2d611a08565b500490565b600082611a4157611a41611a08565b500690565b634e487b7160e01b600052603260045260246000fdfea164736f6c634300080b000a",
  "linkReferences": {},
  "deployedLinkReferences": {}
}