{
  "_format": "hh-sol-artifact-1",
  "contractName": "NFTMint",
  "sourceName": "contracts/NFTmint.sol",
  "abi": [
    {
      "inputs": [
        {
          "internalType": "string",
          "name": "name",
          "type": "string"
        },
        {
          "internalType": "string",
          "name": "symbol",
          "type": "string"
        }
      ],
      "stateMutability": "nonpayable",
      "type": "constructor"
    },
    {
      "anonymous": false,
      "inputs": [
        {
          "indexed": true,
          "internalType": "address",
          "name": "owner",
          "type": "address"
        },
        {
          "indexed": true,
          "internalType": "address",
          "name": "approved",
          "type": "address"
        },
        {
          "indexed": true,
          "internalType": "uint256",
          "name": "tokenId",
          "type": "uint256"
        }
      ],
      "name": "Approval",
      "type": "event"
    },
    {
      "anonymous": false,
      "inputs": [
        {
          "indexed": true,
          "internalType": "address",
          "name": "owner",
          "type": "address"
        },
        {
          "indexed": true,
          "internalType": "address",
          "name": "operator",
          "type": "address"
        },
        {
          "indexed": false,
          "internalType": "bool",
          "name": "approved",
          "type": "bool"
        }
      ],
      "name": "ApprovalForAll",
      "type": "event"
    },
    {
      "anonymous": false,
      "inputs": [
        {
          "indexed": true,
          "internalType": "address",
          "name": "from",
          "type": "address"
        },
        {
          "indexed": true,
          "internalType": "address",
          "name": "to",
          "type": "address"
        },
        {
          "indexed": true,
          "internalType": "uint256",
          "name": "tokenId",
          "type": "uint256"
        }
      ],
      "name": "Transfer",
      "type": "event"
    },
    {
      "inputs": [
        {
          "internalType": "address",
          "name": "to",
          "type": "address"
        },
        {
          "internalType": "uint256",
          "name": "tokenId",
          "type": "uint256"
        }
      ],
      "name": "approve",
      "outputs": [],
      "stateMutability": "nonpayable",
      "type": "function"
    },
    {
      "inputs": [
        {
          "internalType": "uint256",
          "name": "_tokenId",
          "type": "uint256"
        },
        {
          "internalType": "address",
          "name": "_marketplaceAddress",
          "type": "address"
        }
      ],
      "name": "approveNFT",
      "outputs": [],
      "stateMutability": "nonpayable",
      "type": "function"
    },
    {
      "inputs": [
        {
          "internalType": "address",
          "name": "owner",
          "type": "address"
        }
      ],
      "name": "balanceOf",
      "outputs": [
        {
          "internalType": "uint256",
          "name": "",
          "type": "uint256"
        }
      ],
      "stateMutability": "view",
      "type": "function"
    },
    {
      "inputs": [],
      "name": "fetchTokenCount",
      "outputs": [
        {
          "internalType": "uint256",
          "name": "",
          "type": "uint256"
        }
      ],
      "stateMutability": "view",
      "type": "function"
    },
    {
      "inputs": [
        {
          "internalType": "uint256",
          "name": "tokenId",
          "type": "uint256"
        }
      ],
      "name": "getApproved",
      "outputs": [
        {
          "internalType": "address",
          "name": "",
          "type": "address"
        }
      ],
      "stateMutability": "view",
      "type": "function"
    },
    {
      "inputs": [
        {
          "internalType": "address",
          "name": "owner",
          "type": "address"
        },
        {
          "internalType": "address",
          "name": "operator",
          "type": "address"
        }
      ],
      "name": "isApprovedForAll",
      "outputs": [
        {
          "internalType": "bool",
          "name": "",
          "type": "bool"
        }
      ],
      "stateMutability": "view",
      "type": "function"
    },
    {
      "inputs": [
        {
          "internalType": "string",
          "name": "_tokenURI",
          "type": "string"
        },
        {
          "internalType": "uint256",
          "name": "_price",
          "type": "uint256"
        },
        {
          "internalType": "uint256",
          "name": "_royaltyToYou",
          "type": "uint256"
        },
        {
          "internalType": "uint256",
          "name": "_royaltyToCause",
          "type": "uint256"
        },
        {
          "internalType": "address",
          "name": "_userWallet",
          "type": "address"
        }
      ],
      "name": "mintNFT",
      "outputs": [],
      "stateMutability": "nonpayable",
      "type": "function"
    },
    {
      "inputs": [],
      "name": "name",
      "outputs": [
        {
          "internalType": "string",
          "name": "",
          "type": "string"
        }
      ],
      "stateMutability": "view",
      "type": "function"
    },
    {
      "inputs": [
        {
          "internalType": "uint256",
          "name": "tokenId",
          "type": "uint256"
        }
      ],
      "name": "ownerOf",
      "outputs": [
        {
          "internalType": "address",
          "name": "",
          "type": "address"
        }
      ],
      "stateMutability": "view",
      "type": "function"
    },
    {
      "inputs": [
        {
          "internalType": "address",
          "name": "from",
          "type": "address"
        },
        {
          "internalType": "address",
          "name": "to",
          "type": "address"
        },
        {
          "internalType": "uint256",
          "name": "tokenId",
          "type": "uint256"
        }
      ],
      "name": "safeTransferFrom",
      "outputs": [],
      "stateMutability": "nonpayable",
      "type": "function"
    },
    {
      "inputs": [
        {
          "internalType": "address",
          "name": "from",
          "type": "address"
        },
        {
          "internalType": "address",
          "name": "to",
          "type": "address"
        },
        {
          "internalType": "uint256",
          "name": "tokenId",
          "type": "uint256"
        },
        {
          "internalType": "bytes",
          "name": "_data",
          "type": "bytes"
        }
      ],
      "name": "safeTransferFrom",
      "outputs": [],
      "stateMutability": "nonpayable",
      "type": "function"
    },
    {
      "inputs": [
        {
          "internalType": "address",
          "name": "operator",
          "type": "address"
        },
        {
          "internalType": "bool",
          "name": "approved",
          "type": "bool"
        }
      ],
      "name": "setApprovalForAll",
      "outputs": [],
      "stateMutability": "nonpayable",
      "type": "function"
    },
    {
      "inputs": [
        {
          "internalType": "bytes4",
          "name": "interfaceId",
          "type": "bytes4"
        }
      ],
      "name": "supportsInterface",
      "outputs": [
        {
          "internalType": "bool",
          "name": "",
          "type": "bool"
        }
      ],
      "stateMutability": "view",
      "type": "function"
    },
    {
      "inputs": [],
      "name": "symbol",
      "outputs": [
        {
          "internalType": "string",
          "name": "",
          "type": "string"
        }
      ],
      "stateMutability": "view",
      "type": "function"
    },
    {
      "inputs": [
        {
          "internalType": "uint256",
          "name": "",
          "type": "uint256"
        }
      ],
      "name": "tokenData",
      "outputs": [
        {
          "internalType": "uint256",
          "name": "price",
          "type": "uint256"
        },
        {
          "internalType": "uint256",
          "name": "royaltyToYou",
          "type": "uint256"
        },
        {
          "internalType": "uint256",
          "name": "royaltyToCause",
          "type": "uint256"
        },
        {
          "internalType": "address",
          "name": "userWallet",
          "type": "address"
        }
      ],
      "stateMutability": "view",
      "type": "function"
    },
    {
      "inputs": [
        {
          "internalType": "uint256",
          "name": "tokenId",
          "type": "uint256"
        }
      ],
      "name": "tokenURI",
      "outputs": [
        {
          "internalType": "string",
          "name": "",
          "type": "string"
        }
      ],
      "stateMutability": "view",
      "type": "function"
    },
    {
      "inputs": [
        {
          "internalType": "address",
          "name": "from",
          "type": "address"
        },
        {
          "internalType": "address",
          "name": "to",
          "type": "address"
        },
        {
          "internalType": "uint256",
          "name": "tokenId",
          "type": "uint256"
        }
      ],
      "name": "transferFrom",
      "outputs": [],
      "stateMutability": "nonpayable",
      "type": "function"
    }
  ],
  "bytecode": "0x60806040523480156200001157600080fd5b5060405162001d1238038062001d128339810160408190526200003491620001da565b8151829082906200004d90600090602085019062000081565b5080516200006390600190602084019062000081565b5050600780546001600160a01b031916331790555062000294915050565b8280546200008f9062000241565b90600052602060002090601f016020900481019282620000b35760008555620000fe565b82601f10620000ce57805160ff1916838001178555620000fe565b82800160010185558215620000fe579182015b82811115620000fe578251825591602001919060010190620000e1565b506200010c92915062000110565b5090565b5b808211156200010c576000815560010162000111565b600082601f83011262000138578081fd5b81516001600160401b03808211156200015557620001556200027e565b604051601f8301601f19908116603f011681019082821181831017156200018057620001806200027e565b816040528381526020925086838588010111156200019c578485fd5b8491505b83821015620001bf5785820183015181830184015290820190620001a0565b83821115620001d057848385830101525b9695505050505050565b60008060408385031215620001ed578182fd5b82516001600160401b038082111562000204578384fd5b620002128683870162000127565b9350602085015191508082111562000228578283fd5b50620002378582860162000127565b9150509250929050565b600181811c908216806200025657607f821691505b602082108114156200027857634e487b7160e01b600052602260045260246000fd5b50919050565b634e487b7160e01b600052604160045260246000fd5b611a6e80620002a46000396000f3fe608060405234801561001057600080fd5b506004361061011b5760003560e01c806370a08231116100b2578063aab5f20611610081578063b88d4fde11610066578063b88d4fde146102a7578063c87b56dd146102ba578063e985e9c5146102cd57600080fd5b8063aab5f2061461022d578063b4b5b48f1461024057600080fd5b806370a08231146101ec578063795a41de146101ff57806395d89b4114610212578063a22cb4651461021a57600080fd5b806323b872dd116100ee57806323b872dd1461019d57806342842e0e146101b05780636352211e146101c35780636f81239c146101d657600080fd5b806301ffc9a71461012057806306fdde0314610148578063081812fc1461015d578063095ea7b314610188575b600080fd5b61013361012e366004611795565b610309565b60405190151581526020015b60405180910390f35b61015061035b565b60405161013f919061191a565b61017061016b366004611849565b6103ed565b6040516001600160a01b03909116815260200161013f565b61019b61019636600461176c565b610487565b005b61019b6101ab36600461167e565b61059d565b61019b6101be36600461167e565b610624565b6101706101d1366004611849565b61063f565b6101de6106ca565b60405190815260200161013f565b6101de6101fa366004611632565b6106da565b61019b61020d366004611861565b610774565b6101506107ef565b61019b610228366004611732565b6107fe565b61019b61023b3660046117cd565b61080d565b61027e61024e366004611849565b6008602052600090815260409020805460018201546002830154600390930154919290916001600160a01b031684565b604080519485526020850193909352918301526001600160a01b0316606082015260800161013f565b61019b6102b53660046116b9565b610881565b6101506102c8366004611849565b61090f565b6101336102db36600461164c565b6001600160a01b03918216600090815260056020908152604080832093909416825291909152205460ff1690565b60006001600160e01b031982166380ac58cd60e01b148061033a57506001600160e01b03198216635b5e139f60e01b145b8061035557506301ffc9a760e01b6001600160e01b03198316145b92915050565b60606000805461036a9061199c565b80601f01602080910402602001604051908101604052809291908181526020018280546103969061199c565b80156103e35780601f106103b8576101008083540402835291602001916103e3565b820191906000526020600020905b8154815290600101906020018083116103c657829003601f168201915b5050505050905090565b6000818152600260205260408120546001600160a01b031661046b5760405162461bcd60e51b815260206004820152602c60248201527f4552433732313a20617070726f76656420717565727920666f72206e6f6e657860448201526b34b9ba32b73a103a37b5b2b760a11b60648201526084015b60405180910390fd5b506000908152600460205260409020546001600160a01b031690565b60006104928261063f565b9050806001600160a01b0316836001600160a01b031614156105005760405162461bcd60e51b815260206004820152602160248201527f4552433732313a20617070726f76616c20746f2063757272656e74206f776e656044820152603960f91b6064820152608401610462565b336001600160a01b038216148061051c575061051c81336102db565b61058e5760405162461bcd60e51b815260206004820152603860248201527f4552433732313a20617070726f76652063616c6c6572206973206e6f74206f7760448201527f6e6572206e6f7220617070726f76656420666f7220616c6c00000000000000006064820152608401610462565b6105988383610aa2565b505050565b6105a73382610b10565b6106195760405162461bcd60e51b815260206004820152603160248201527f4552433732313a207472616e736665722063616c6c6572206973206e6f74206f60448201527f776e6572206e6f7220617070726f7665640000000000000000000000000000006064820152608401610462565b610598838383610c03565b61059883838360405180602001604052806000815250610881565b6000818152600260205260408120546001600160a01b0316806103555760405162461bcd60e51b815260206004820152602960248201527f4552433732313a206f776e657220717565727920666f72206e6f6e657869737460448201527f656e7420746f6b656e00000000000000000000000000000000000000000000006064820152608401610462565b60006106d560095490565b905090565b60006001600160a01b0382166107585760405162461bcd60e51b815260206004820152602a60248201527f4552433732313a2062616c616e636520717565727920666f7220746865207a6560448201527f726f2061646472657373000000000000000000000000000000000000000000006064820152608401610462565b506001600160a01b031660009081526003602052604090205490565b600061077f8361063f565b90506001600160a01b03811633146107e55760405162461bcd60e51b8152602060048201526024808201527f5468652063616c6c6572206973206e6f74206f776e6572206f6620746869732060448201526327232a1760e11b6064820152608401610462565b6105988284610487565b60606001805461036a9061199c565b610809338383610db7565b5050565b600061081860095490565b90506108243382610e86565b61082e8187610ea0565b6000818152600860205260409020858155600181018590556002810184905560030180546001600160a01b0384166001600160a01b0319909116179055610879600980546001019055565b505050505050565b61088b3383610b10565b6108fd5760405162461bcd60e51b815260206004820152603160248201527f4552433732313a207472616e736665722063616c6c6572206973206e6f74206f60448201527f776e6572206e6f7220617070726f7665640000000000000000000000000000006064820152608401610462565b61090984848484610f49565b50505050565b6000818152600260205260409020546060906001600160a01b031661099c5760405162461bcd60e51b815260206004820152603160248201527f45524337323155524953746f726167653a2055524920717565727920666f722060448201527f6e6f6e6578697374656e7420746f6b656e0000000000000000000000000000006064820152608401610462565b600082815260066020526040812080546109b59061199c565b80601f01602080910402602001604051908101604052809291908181526020018280546109e19061199c565b8015610a2e5780601f10610a0357610100808354040283529160200191610a2e565b820191906000526020600020905b815481529060010190602001808311610a1157829003601f168201915b505050505090506000610a4c60408051602081019091526000815290565b9050805160001415610a5f575092915050565b815115610a91578082604051602001610a799291906118af565b60405160208183030381529060405292505050919050565b610a9a84610fc7565b949350505050565b600081815260046020526040902080546001600160a01b0319166001600160a01b0384169081179091558190610ad78261063f565b6001600160a01b03167f8c5be1e5ebec7d5bd14f71427d1e84f3dd0314c0f7b2291e5b200ac8c7c3b92560405160405180910390a45050565b6000818152600260205260408120546001600160a01b0316610b895760405162461bcd60e51b815260206004820152602c60248201527f4552433732313a206f70657261746f7220717565727920666f72206e6f6e657860448201526b34b9ba32b73a103a37b5b2b760a11b6064820152608401610462565b6000610b948361063f565b9050806001600160a01b0316846001600160a01b03161480610bcf5750836001600160a01b0316610bc4846103ed565b6001600160a01b0316145b80610a9a57506001600160a01b0380821660009081526005602090815260408083209388168352929052205460ff16610a9a565b826001600160a01b0316610c168261063f565b6001600160a01b031614610c925760405162461bcd60e51b815260206004820152602560248201527f4552433732313a207472616e736665722066726f6d20696e636f72726563742060448201527f6f776e65720000000000000000000000000000000000000000000000000000006064820152608401610462565b6001600160a01b038216610cf45760405162461bcd60e51b8152602060048201526024808201527f4552433732313a207472616e7366657220746f20746865207a65726f206164646044820152637265737360e01b6064820152608401610462565b610cff600082610aa2565b6001600160a01b0383166000908152600360205260408120805460019290610d28908490611959565b90915550506001600160a01b0382166000908152600360205260408120805460019290610d5690849061192d565b909155505060008181526002602052604080822080546001600160a01b0319166001600160a01b0386811691821790925591518493918716917fddf252ad1be2c89b69c2b068fc378daa952ba7f163c4a11628f55a4df523b3ef91a4505050565b816001600160a01b0316836001600160a01b03161415610e195760405162461bcd60e51b815260206004820152601960248201527f4552433732313a20617070726f766520746f2063616c6c6572000000000000006044820152606401610462565b6001600160a01b03838116600081815260056020908152604080832094871680845294825291829020805460ff191686151590811790915591519182527f17307eab39ab6107e8899845ad3d59bd9653f200f220920489ca2b5937696c31910160405180910390a3505050565b6108098282604051806020016040528060008152506110bd565b6000828152600260205260409020546001600160a01b0316610f2a5760405162461bcd60e51b815260206004820152602e60248201527f45524337323155524953746f726167653a2055524920736574206f66206e6f6e60448201527f6578697374656e7420746f6b656e0000000000000000000000000000000000006064820152608401610462565b6000828152600660209081526040909120825161059892840190611507565b610f54848484610c03565b610f608484848461113b565b6109095760405162461bcd60e51b815260206004820152603260248201527f4552433732313a207472616e7366657220746f206e6f6e20455243373231526560448201527131b2b4bb32b91034b6b83632b6b2b73a32b960711b6064820152608401610462565b6000818152600260205260409020546060906001600160a01b03166110545760405162461bcd60e51b815260206004820152602f60248201527f4552433732314d657461646174613a2055524920717565727920666f72206e6f60448201527f6e6578697374656e7420746f6b656e00000000000000000000000000000000006064820152608401610462565b600061106b60408051602081019091526000815290565b9050600081511161108b57604051806020016040528060008152506110b6565b8061109584611293565b6040516020016110a69291906118af565b6040516020818303038152906040525b9392505050565b6110c783836113c5565b6110d4600084848461113b565b6105985760405162461bcd60e51b815260206004820152603260248201527f4552433732313a207472616e7366657220746f206e6f6e20455243373231526560448201527131b2b4bb32b91034b6b83632b6b2b73a32b960711b6064820152608401610462565b60006001600160a01b0384163b1561128857604051630a85bd0160e11b81526001600160a01b0385169063150b7a029061117f9033908990889088906004016118de565b602060405180830381600087803b15801561119957600080fd5b505af19250505080156111c9575060408051601f3d908101601f191682019092526111c6918101906117b1565b60015b61126e573d8080156111f7576040519150601f19603f3d011682016040523d82523d6000602084013e6111fc565b606091505b5080516112665760405162461bcd60e51b815260206004820152603260248201527f4552433732313a207472616e7366657220746f206e6f6e20455243373231526560448201527131b2b4bb32b91034b6b83632b6b2b73a32b960711b6064820152608401610462565b805181602001fd5b6001600160e01b031916630a85bd0160e11b149050610a9a565b506001949350505050565b6060816112b75750506040805180820190915260018152600360fc1b602082015290565b8160005b81156112e157806112cb816119d7565b91506112da9050600a83611945565b91506112bb565b60008167ffffffffffffffff81111561130a57634e487b7160e01b600052604160045260246000fd5b6040519080825280601f01601f191660200182016040528015611334576020820181803683370190505b5090505b8415610a9a57611349600183611959565b9150611356600a866119f2565b61136190603061192d565b60f81b81838151811061138457634e487b7160e01b600052603260045260246000fd5b60200101907effffffffffffffffffffffffffffffffffffffffffffffffffffffffffffff1916908160001a9053506113be600a86611945565b9450611338565b6001600160a01b03821661141b5760405162461bcd60e51b815260206004820181905260248201527f4552433732313a206d696e7420746f20746865207a65726f20616464726573736044820152606401610462565b6000818152600260205260409020546001600160a01b0316156114805760405162461bcd60e51b815260206004820152601c60248201527f4552433732313a20746f6b656e20616c7265616479206d696e746564000000006044820152606401610462565b6001600160a01b03821660009081526003602052604081208054600192906114a990849061192d565b909155505060008181526002602052604080822080546001600160a01b0319166001600160a01b03861690811790915590518392907fddf252ad1be2c89b69c2b068fc378daa952ba7f163c4a11628f55a4df523b3ef908290a45050565b8280546115139061199c565b90600052602060002090601f016020900481019282611535576000855561157b565b82601f1061154e57805160ff191683800117855561157b565b8280016001018555821561157b579182015b8281111561157b578251825591602001919060010190611560565b5061158792915061158b565b5090565b5b80821115611587576000815560010161158c565b600067ffffffffffffffff808411156115bb576115bb611a32565b604051601f8501601f19908116603f011681019082821181831017156115e3576115e3611a32565b816040528093508581528686860111156115fc57600080fd5b858560208301376000602087830101525050509392505050565b80356001600160a01b038116811461162d57600080fd5b919050565b600060208284031215611643578081fd5b6110b682611616565b6000806040838503121561165e578081fd5b61166783611616565b915061167560208401611616565b90509250929050565b600080600060608486031215611692578081fd5b61169b84611616565b92506116a960208501611616565b9150604084013590509250925092565b600080600080608085870312156116ce578081fd5b6116d785611616565b93506116e560208601611616565b925060408501359150606085013567ffffffffffffffff811115611707578182fd5b8501601f81018713611717578182fd5b611726878235602084016115a0565b91505092959194509250565b60008060408385031215611744578182fd5b61174d83611616565b915060208301358015158114611761578182fd5b809150509250929050565b6000806040838503121561177e578182fd5b61178783611616565b946020939093013593505050565b6000602082840312156117a6578081fd5b81356110b681611a48565b6000602082840312156117c2578081fd5b81516110b681611a48565b600080600080600060a086880312156117e4578081fd5b853567ffffffffffffffff8111156117fa578182fd5b8601601f8101881361180a578182fd5b611819888235602084016115a0565b95505060208601359350604086013592506060860135915061183d60808701611616565b90509295509295909350565b60006020828403121561185a578081fd5b5035919050565b60008060408385031215611873578182fd5b8235915061167560208401611616565b6000815180845261189b816020860160208601611970565b601f01601f19169290920160200192915050565b600083516118c1818460208801611970565b8351908301906118d5818360208801611970565b01949350505050565b60006001600160a01b038087168352808616602084015250836040830152608060608301526119106080830184611883565b9695505050505050565b6020815260006110b66020830184611883565b6000821982111561194057611940611a06565b500190565b60008261195457611954611a1c565b500490565b60008282101561196b5761196b611a06565b500390565b60005b8381101561198b578181015183820152602001611973565b838111156109095750506000910152565b600181811c908216806119b057607f821691505b602082108114156119d157634e487b7160e01b600052602260045260246000fd5b50919050565b60006000198214156119eb576119eb611a06565b5060010190565b600082611a0157611a01611a1c565b500690565b634e487b7160e01b600052601160045260246000fd5b634e487b7160e01b600052601260045260246000fd5b634e487b7160e01b600052604160045260246000fd5b6001600160e01b031981168114611a5e57600080fd5b5056fea164736f6c6343000804000a",
  "linkReferences": {},
  "deployedLinkReferences": {}
}